:100000000C9435000C945D000C945D000C945D0024
:100010000C945D000C945D000C945D000C945D00EC
:100020000C945D000C945D000C949B020C945D009C
:100030000C945D000C945D000C945D000C945D00CC
:100040000C94F9010C945D000C9469020C94430229
:100050000C945D000C945D000C945D000C945D00AC
:100060000C945D000C945D00B10211241FBECFEF13
:10007000D8E0DEBFCDBF21E0ACE1B1E001C01D9210
:10008000A83CB207E1F711E0A0E0B1E0E0EDFDE04F
:1000900002C005900D92AC31B107D9F710E0C5E36D
:1000A000D0E004C02197FE010E94EE04C433D107C2
:1000B000C9F70E94EE020C94E6060C9400003FB7CC
:1000C000F89480911D0190911E01A0911F01B091A3
:1000D000200126B5A89B05C02F3F19F00196A11D50
:1000E000B11D3FBFBA2FA92F982F8827BC01CD0182
:1000F000620F711D811D911D42E0660F771F881FE1
:10010000991F4A95D1F70895AF92BF92CF92DF928F
:10011000EF92FF920F931F93CF93DF936C017B01BC
:100120008B01040F151FEB015E01AE18BF08C0174D
:10013000D10759F06991D601ED91FC910190F081C0
:10014000E02DC6010995892B79F7C501DF91CF9183
:100150001F910F91FF90EF90DF90CF90BF90AF90E5
:100160000895FC01538D448D252F30E0842F90E0BD
:10017000821B930B541710F0CF96089501970895A2
:10018000FC01918D828D981761F0A28DAE0FBF2F6B
:10019000B11D5D968C91928D9F5F9F73928F90E0C1
:1001A00008958FEF9FEF08952FB7F8948091210164
:1001B00090912201A0912301B09124012FBF80933F
:1001C0002D0190932E01A0932F01B093300185E271
:1001D00091E00E94C00097FF26C02FB7F89480914D
:1001E000210190912201A0912301B09124012FBF00
:1001F00040912D0150912E0160912F01709130019D
:10020000841B950BA60BB70B4091290150912A0135
:1002100060912B0170912C0184179507A607B707F1
:10022000B0F28FEF9FEF0895FC01918D828D9817AA
:1002300031F0828DE80FF11D858D90E008958FEFEC
:100240009FEF0895FC01918D228D892F90E0805CB5
:100250009F4F821B91098F739927089585E291E042
:100260000E94220121E0892B09F420E0822F0895C9
:1002700080E090E0892B29F00E942E0181110C94DE
:1002800000000895FC01A48DA80FB92FB11DA35A39
:10029000BF4F2C91848D90E001968F739927848FA6
:1002A000A689B7892C93A089B1898C9183708064C9
:1002B0008C93938D848D981306C00288F389E02D6A
:1002C00080818F7D80830895EF92FF920F931F931B
:1002D000CF93DF93EC0181E0888F9B8D8C8D9813F9
:1002E0001AC0E889F989808185FF15C09FB7F89405
:1002F000EE89FF896083E889F98980818370806451
:1003000080839FBF81E090E0DF91CF911F910F919B
:10031000FF90EF900895F62E0B8D10E00F5F1F4FAA
:100320000F731127E02E8C8D8E110CC00FB607FCB9
:10033000FACFE889F989808185FFF5CFCE010E9447
:100340004201F1CFEB8DEC0FFD2FF11DE35AFF4F72
:10035000F0829FB7F8940B8FEA89FB8980818062D5
:10036000CFCFCF93DF93EC01888D8823B9F0AA8992
:10037000BB89E889F9898C9185FD03C0808186FD60
:100380000DC00FB607FCF7CF8C9185FFF2CF8081AF
:1003900085FFEDCFCE010E944201E9CFDF91CF91E1
:1003A00008950F931F93CF93DF93EC018881998178
:1003B000009759F02A813B812617370730F081E0FA
:1003C000DF91CF911F910F9108958B016F5F7F4F48
:1003D0000E941906009759F0998388831B830A832A
:1003E0002C813D81232B59F7FC011082E8CF80E05E
:1003F000E7CF1F920F920FB60F9211242F933F93C6
:100400008F939F93AF93BF9380912101909122018D
:10041000A0912301B091240130911C0123E0230F0E
:100420002D3758F50196A11DB11D20931C01809315
:10043000210190932201A0932301B0932401809184
:100440001D0190911E01A0911F01B0912001019604
:10045000A11DB11D80931D0190931E01A0931F014A
:10046000B0932001BF91AF919F918F913F912F91B8
:100470000F900FBE0F901F90189526E8230F02963D
:10048000A11DB11DD2CF1F920F920FB60F92112452
:100490002F933F934F935F936F937F938F939F938C
:1004A000AF93BF93EF93FF9385E291E00E944201E7
:1004B000FF91EF91BF91AF919F918F917F916F913C
:1004C0005F914F913F912F910F900FBE0F901F9012
:1004D00018951F920F920FB60F9211242F938F939E
:1004E0009F93EF93FF93E0913501F0913601808166
:1004F000E0913B01F0913C0182FD1BC09081809115
:100500003E018F5F8F7320913F01821741F0E09190
:100510003E01F0E0EB5DFE4F958F80933E01FF9131
:10052000EF919F918F912F910F900FBE0F901F9081
:1005300018958081F4CF1F920F920FB60F9211245D
:100540008F939F938091C2019091C30190938700F4
:10055000809386009F918F910F900FBE0F901F90F8
:100560001895E5E2F1E01382128288EE93E0A0E0B4
:10057000B0E084839583A683B7838CE091E0918378
:10058000808385EC90E09587848784EC90E0978762
:10059000868780EC90E0918B808B81EC90E0938B50
:1005A000828B82EC90E0958B848B86EC90E0978B2D
:1005B000868B118E128E138E148E20910001309135
:1005C000010150E040E060E472E48FE090E00E94BE
:1005D000AD043093C3012093C2010895CF93DF93FC
:1005E000CDB7DEB728970FB6F894DEBF0FBECDBFEC
:1005F000789484B5826084BD84B5816084BD85B5FE
:10060000826085BD85B5816085BD80916E00816009
:1006100080936E00109281008091810082608093AF
:1006200081008091810081608093810080918000B1
:100630008160809380008091B10084608093B100DC
:100640008091B00081608093B00080917A008460D6
:1006500080937A0080917A00826080937A00809102
:100660007A00816080937A0080917A00806880931C
:100670007A001092C100E0913501F091360182E0DC
:100680008083E0913101F09132011082E0913301D9
:10069000F091340180E1808310923D01E0913901B5
:1006A000F0913A0186E08083E0913701F0913801C2
:1006B000808180618083E0913701F09138018081F1
:1006C00088608083E0913701F091380180818068F3
:1006D0008083E0913701F091380180818F7D8083A4
:1006E000109280008091800080648093800010923E
:1006F00081008091810082608093810080918100DF
:1007000088618093810080916F00806280936F0088
:100710008091C2019091C3019093870080938600DD
:10072000219A90E4492E92E4592E9FE0692E712C73
:1007300020E0222E20E0322E85E291E00E9422016C
:10074000181619060CF066C01A8219821C821B82C8
:100750001E821D8270E060E0CE0101960E94D101F0
:1007600029813A8181112BC02115310519F0C90168
:100770000E9490051A8219821E821D821C821B8291
:100780000E94D40097FD23C08F8318860D811E819F
:100790000F5F1F4FB801CE0101960E94D10188233F
:1007A00079F329813A818D819E81BE01695F7F4FF6
:1007B000820F931F0E94DF061E830D83E1CF1E82EE
:1007C0001D826AE171E0C9010E94DF06D9CF09816B
:1007D0001A8160E070E0CB010115110519F0C80124
:1007E0000E943A047093010160930001209100017E
:1007F0003091010150E040E0C301B2010E94AD041C
:100800003093C3012093C2010115110519F0C801ED
:100810000E9490050E945F004B015C0184E6C82E97
:10082000D12CE12CF12C0E945F00681979098A090A
:100830009B09683E734081059105A8F321E0C21A27
:10084000D108E108F10888EE880E83E0981EA11C0B
:10085000B11CC114D104E104F10429F721143104BD
:1008600009F46ACF0E942E01882309F465CF0E9403
:10087000000062CF1F93FC0199278827BC01E894F0
:1008800011911032E9F3193010F01E30C8F31B3209
:1008900051F01D3249F4689406C00E946104610F52
:1008A000711D811D911D119110531A30B0F33EF44A
:1008B00090958095709561957F4F8F4F9F4F1F91B9
:1008C0000895592F482F372F262F660F771F881F1F
:1008D000991F660F771F881F991F620F731F841F50
:1008E000951F660F771F881F991F08952F923F92BB
:1008F0004F925F926F927F928F929F92AF92BF9230
:10090000CF92DF92EF92FF920F931F93CF93DF93DB
:10091000CDB7DEB7CA1BDB0B0FB6F894DEBF0FBE38
:10092000CDBF09942A88398848885F846E847D8485
:100930008C849B84AA84B984C884DF80EE80FD8087
:100940000C811B81AA81B981CE0FD11D0FB6F894FD
:10095000DEBF0FBECDBFED010895052E97FB1EF43F
:1009600000940E94C40457FD07D00E94CC0407FCE9
:1009700003D04EF40C94C4045095409530952195C5
:100980003F4F4F4F5F4F08959095809570956195BB
:100990007F4F8F4F9F4F0895A1E21A2EAA1BBB1BBA
:1009A000FD010DC0AA1FBB1FEE1FFF1FA217B3073B
:1009B000E407F50720F0A21BB30BE40BF50B661F51
:1009C000771F881F991F1A9469F760957095809515
:1009D00090959B01AC01BD01CF010895EE0FFF1F63
:1009E0000590F491E02D09940F931F93CF93DF931B
:1009F0008230910510F482E090E0E091C601F09120
:100A0000C70130E020E0B0E0A0E0309799F4211574
:100A1000310509F44AC0281B390B24303105D8F5BB
:100A20008A819B816115710589F1FB019383828322
:100A3000FE0111C04081518102811381481759077D
:100A4000E0F04817590799F4109761F012960C934B
:100A5000129713961C933296CF01DF91CF911F917D
:100A60000F9108950093C6011093C701F4CF21158B
:100A7000310551F04217530738F0A901DB019A0103
:100A8000BD01DF01F801C1CFEF01F9CF9093C7019C
:100A90008093C601CDCFFE01E20FF31F81939193A6
:100AA0002250310939832883D7CF2091C401309156
:100AB000C501232B41F420910401309105013093AD
:100AC000C5012093C4012091020130910301211539
:100AD000310541F42DB73EB7409106015091070111
:100AE000241B350BE091C401F091C501E217F30717
:100AF000A0F42E1B3F0B2817390778F0AC014E5F8E
:100B00005F4F2417350748F04E0F5F1F5093C50104
:100B10004093C401819391939FCFF0E0E0E09CCF9C
:100B2000CF93DF930097E9F0FC0132971382128292
:100B3000A091C601B091C701ED0130E020E010970F
:100B4000A1F420813181820F931F2091C401309143
:100B5000C5012817390709F061C0F093C501E0937A
:100B6000C401DF91CF910895EA01CE17DF07E8F5C0
:100B70004A815B819E0141155105B1F7E901FB8373
:100B8000EA8349915991C40FD51FEC17FD0761F411
:100B9000808191810296840F951FE9019983888352
:100BA000828193819B838A83F0E0E0E012968D91AD
:100BB0009C9113970097B9F52D913C911197CD0118
:100BC0000296820F931F2091C4013091C50128170E
:100BD000390739F6309751F51092C7011092C601C6
:100BE000B093C501A093C401BCCFD383C28340811D
:100BF0005181840F951FC817D90761F44E5F5F4F6D
:100C000088819981480F591F518340838A819B8134
:100C1000938382832115310509F0B0CFF093C7018A
:100C2000E093C6019ECFFD01DC01C0CF138212828A
:100C3000D7CFB0E0A0E0EFE1F6E00C9478048C01AF
:100C4000009751F4CB010E94F4048C01C801CDB788
:100C5000DEB7E0E10C949404FC01E60FF71F9C0161
:100C600022503109E217F30708F49DC0D901CD9154
:100C7000DC911197C617D70798F0C530D10530F32E
:100C8000CE0104978617970708F3C61BD70B229748
:100C9000C193D1936D937C93CF010E949005D6CFE1
:100CA0005B01AC1ABD0A4C018C0E9D1EA091C601C1
:100CB000B091C701512C412CF12CE12C109731F54A
:100CC0008091C4019091C5018815990509F05CC017
:100CD0004616570608F058C0809102019091030112
:100CE000009741F48DB79EB74091060150910701DE
:100CF000841B950BE817F90708F055C0F093C50160
:100D0000E093C401F90171836083A0CF8D919C9120
:100D1000119712966C90129713967C901397A815C2
:100D2000B90559F56C0142E0C40ED11CCA14DB04AC
:100D300020F1AC014A195B09DA011296159780F08F
:100D40006282738251834083D9016D937C93E11455
:100D5000F10471F0D7011396FC93EE93129776CFBE
:100D600022968C0F9D1FF90191838083F301EFCFB1
:100D7000F093C701E093C60169CF4816590608F4FD
:100D80002C017D01D3019ACFCB010E94F4047C0198
:100D9000009749F0AE01B8010E94D606C8010E9432
:100DA0009005870153CF10E000E050CFFB01DC013C
:100DB00002C001900D9241505040D8F70895FB01B8
:100DC000DC0101900D920020E1F70895F894FFCF27
:100DD00028230000C8018000000000006401840096
:0C0DE000B100B1012201C00014010000AC
:00000001FF
