:020000040000FA
:100000000C9462000C948A000C948A000C948A0070
:100010000C948A000C948A000C948A000C948A0038
:100020000C948A000C948A000C948A000C948A0028
:100030000C948A000C948A000C948A000C948A0018
:100040000C94AA030C948A000C941A040C94F403E4
:100050000C948A000C948A000C948A000C948A00F8
:100060000C948A000C948A000000000024002700F1
:100070002A0000000000250028002B0000000000DE
:1000800023002600290004040404040404040202DA
:100090000202020203030303030301020408102007
:1000A0004080010204081020010204081020000012
:1000B0000008000201000003040700000000000027
:1000C0000000750611241FBECFEFD8E0DEBFCDBF04
:1000D00022E0A8E6B1E001C01D92A231B207E1F72B
:1000E00011E0A0E0B1E0E0E1F2E102C005900D9284
:1000F000A836B107D9F710E0C2E6D0E004C02197D6
:10010000FE010E940E07C136D107C9F70E944C04B8
:100110000C9406090C940000833081F028F481309F
:1001200099F08230A9F008958730A9F08830C9F09D
:100130008430B1F4809180008F7D03C08091800075
:100140008F7780938000089584B58F7784BD08955C
:1001500084B58F7DFBCF8091B0008F778093B00006
:1001600008958091B0008F7DF9CFCF93DF93282F32
:1001700030E0F901E255FF4F8491F901E656FF4F57
:10018000D491F901EA57FF4FC491CC23A1F081111A
:100190000E948C00EC2FF0E0EE0FFF1FE458FF4FA1
:1001A000A591B491EC91ED2381E090E009F480E019
:1001B000DF91CF91089580E090E0FACF1F93CF9325
:1001C000DF93282F30E0F901E255FF4F8491F901C8
:1001D000E656FF4FD491F901EA57FF4FC491CC2363
:1001E000A9F0162F81110E948C00EC2FF0E0EE0F89
:1001F000FF1FEE58FF4FA591B4918FB7F894EC9183
:10020000111108C0D095DE23DC938FBFDF91CF9111
:100210001F910895DE2BF8CFCF93DF9390E0FC0180
:10022000E656FF4F24918A579F4FFC018491882303
:10023000D1F090E0880F991FFC01E859FF4FA5917C
:10024000B491FC01EE58FF4FC591D49161110EC0DD
:100250009FB7F8948C91E22FE0958E238C932881A0
:10026000E223E8839FBFDF91CF9108958FB7F89481
:10027000EC91E22BEC938FBFF6CF3FB7F8948091CF
:100280006D0190916E01A0916F01B091700126B542
:10029000A89B05C02F3F19F00196A11DB11D3FBFBE
:1002A000BA2FA92F982F8827BC01CD01620F711D8D
:1002B000811D911D42E0660F771F881F991F4A9587
:1002C000D1F70895AF92BF92CF92DF92EF92FF9253
:1002D0000F931F93CF93DF936C017B018B01040F6E
:1002E000151FEB015E01AE18BF08C017D10759F00A
:1002F0006991D601ED91FC910190F081E02DC6014C
:100300000995892B79F7C501DF91CF911F910F9145
:10031000FF90EF90DF90CF90BF90AF900895CF9374
:10032000DF93FC01448155816081718181E791E017
:100330000E946201EC0142E050E068E171E081E777
:1003400091E00E9462018C0F9D1FDF91CF91089573
:10035000FC01538D448D252F30E0842F90E0821BCB
:10036000930B541710F0CF96089501970895FC0150
:10037000918D828D981761F0A28DAE0FBF2FB11DA8
:100380005D968C91928D9F5F9F73928F90E0089500
:100390008FEF9FEF0895FC01918D828D981731F0BA
:1003A000828DE80FF11D858D90E008958FEF9FEF0E
:1003B0000895FC01918D228D892F90E0805C9F4FE4
:1003C000821B91098F739927089581E791E00E941C
:1003D000D90121E0892B09F420E0822F089580E0E3
:1003E00090E0892B29F00E94E50181110C94000016
:1003F0000895FC01A48DA80FB92FB11DA35ABF4FBA
:100400002C91848D90E001968F739927848FA68913
:10041000B7892C93A089B1898C91837080648C9367
:10042000938D848D981306C00288F389E02D808116
:100430008F7D80830895EF92FF920F931F93CF9348
:10044000DF93EC0181E0888F9B8D8C8D98131AC00F
:10045000E889F989808185FF15C09FB7F894EE89F6
:10046000FF896083E889F989808183708064808353
:100470009FBF81E090E0DF91CF911F910F91FF909E
:10048000EF900895F62E0B8D10E00F5F1F4F0F7346
:100490001127E02E8C8D8E110CC00FB607FCFACF01
:1004A000E889F989808185FFF5CFCE010E94F901A5
:1004B000F1CFEB8DEC0FFD2FF11DE35AFF4FF082D2
:1004C0009FB7F8940B8FEA89FB8980818062CFCF38
:1004D000CF93DF93EC01888D8823B9F0AA89BB897B
:1004E000E889F9898C9185FD03C0808186FD0DC066
:1004F0000FB607FCF7CF8C9185FFF2CF808185FF87
:10050000EDCFCE010E94F901E9CFDF91CF9108959F
:100510000F931F93CF93DF93EC018881998100970C
:1005200059F02A813B812617370730F081E0DF91AF
:10053000CF911F910F9108958B016F5F7F4F0E94A4
:100540003908009759F0998388831B830A832C818B
:100550003D81232B59F7FC011082E8CF80E0E7CFE3
:10056000CF93DF93EC0188819981009711F00E946D
:10057000B007198218821D821C821B821A82DF91A9
:10058000CF9108950F931F93CF93DF93EC010C81CC
:100590001D810F5F1F4FB8010E948802882391F0D0
:1005A000288139818C819D816CE271E0820F931FDB
:1005B0000E94FF081D830C83CE01DF91CF911F9114
:1005C0000F910895CE010E94B002F6CFCF92DF9234
:1005D000EF92FF920F931F93CF93DF93CDB7DEB7C8
:1005E00028970FB6F894DEBF0FBECDBF7C01CB01BC
:1005F0004AE09E012F5F3F4F6901B9010E94A206A8
:10060000F60101900020E9F73197EC19FD09D9F0C6
:10061000D70114960D911C910E0F1F1FB801C70131
:100620000E9488028823F9F0F701208131818481BA
:100630009581B601820F931F0E94FF08D70115967E
:100640001C930E931497C70128960FB6F894DEBF3B
:100650000FBECDBFDF91CF911F910F91FF90EF9013
:10066000DF90CF900895C7010E94B002ECCFEF92C7
:10067000FF920F931F93CF93DF93EC017B011982BD
:1006800018821B821A821D821C82FB0101900020AD
:10069000E9F731978F01061B170BB8010E948802FA
:1006A000811109C0CE01DF91CF911F910F91FF9071
:1006B000EF900C94B0021D830C83B701888199815F
:1006C000DF91CF911F910F91FF90EF900C94FF0855
:1006D000FC0180819181009711F00C94B00708957E
:1006E000EF92FF920F931F93CF93DF93EC01198248
:1006F00018821B821A821D821C828617970719F1A5
:10070000FB010081118101151105E9F0E480F580FC
:10071000B7010E948802811109C0CE01DF91CF91FB
:100720001F910F91FF90EF900C94B002FD82EC822C
:10073000B80188819981DF91CF911F910F91FF902E
:10074000EF900C94FF08DF91CF911F910F91FF90D4
:10075000EF9008951F920F920FB60F9211242F93CE
:100760003F938F939F93AF93BF9380916901909133
:100770006A01A0916B01B0916C013091680123E096
:10078000230F2D3758F50196A11DB11D2093680147
:100790008093690190936A01A0936B01B0936C01FF
:1007A00080916D0190916E01A0916F01B0917001E7
:1007B0000196A11DB11D80936D0190936E01A093D0
:1007C0006F01B0937001BF91AF919F918F913F9155
:1007D0002F910F900FBE0F901F90189526E8230FB2
:1007E0000296A11DB11DD2CF1F920F920FB60F928C
:1007F00011242F933F934F935F936F937F938F9326
:100800009F93AF93BF93EF93FF9381E791E00E9493
:10081000F901FF91EF91BF91AF919F918F917F91DE
:100820006F915F914F913F912F910F900FBE0F905D
:100830001F9018951F920F920FB60F9211242F93AD
:100840008F939F93EF93FF93E0918101F091820149
:100850008081E0918701F091880182FD1BC0908129
:1008600080918A018F5F8F7320918B01821741F0F5
:10087000E0918A01F0E0EF58FE4F958F80938A0156
:10088000FF91EF919F918F912F910F900FBE0F903D
:100890001F9018958081F4CFCF93DF93CDB7DEB74B
:1008A0006E970FB6F894DEBF0FBECDBF789484B5B7
:1008B000826084BD84B5816084BD85B5826085BD5C
:1008C00085B5816085BD80916E00816080936E00EA
:1008D00010928100809181008260809381008091DC
:1008E000810081608093810080918000816080938D
:1008F00080008091B10084608093B1008091B0004D
:1009000081608093B00080917A00846080937A0047
:1009100080917A00826080937A0080917A00816071
:1009200080937A0080917A00806880937A00109298
:10093000C100E0918101F091820182E08083E09129
:100940007D01F0917E011082E0917F01F0918001A4
:100950008FEC808310928901E0918501F0918601EE
:1009600086E08083E0918301F09184018081806141
:100970008083E0918301F09184018081886080838D
:10098000E0918301F0918401808180688083E0910F
:100990008301F091840180818F7D808361E082E01A
:1009A0000E940C0161E083E00E940C0160E084E0A1
:1009B0000E940C0160E085E00E940C0160E086E08E
:1009C0000E940C0160E087E00E940C0100E010E052
:1009D00060E082E00E94DE0060E083E00E94DE00D2
:1009E0006BE171E0CE0149960E94370387E00E94D7
:1009F000B5007C0186E00E94B5006C0185E00E9494
:100A0000B5005C0184E00E94B5004C01BE01675E48
:100A10007F4FCE0101960E94700361E070E089284B
:100A200011F070E060E0CE0101960E94E6020E94A3
:100A3000C20261E070E0AB2811F070E060E00E945B
:100A4000E6020E94C20261E070E0CD2811F070E081
:100A500060E00E94E6020E94C20261E070E0EF28BE
:100A600011F070E060E00E94E6020E948F01CE016A
:100A700001960E94680361E082E00E94DE0060E06F
:100A800083E00E94DE006EE271E0CE0143960E9498
:100A9000370387E00E94B5007C0186E00E94B50024
:100AA0006C0185E00E94B5005C0184E00E94B50005
:100AB0004C01BE016D5E7F4FCE0101960E94700316
:100AC00061E070E0892811F070E060E0CE010196ED
:100AD0000E94E6020E94C20261E070E0AB2811F0C1
:100AE00070E060E00E94E6020E94C20261E070E0F5
:100AF000CD2811F070E060E00E94E6020E94C20280
:100B000061E070E0EF2811F070E060E00E94E60222
:100B10000E948F01CE0101960E94680360E082E08E
:100B20000E94DE0061E083E00E94DE0061E471E08B
:100B3000CE010D960E94370387E00E94B5007C012C
:100B400086E00E94B5006C0185E00E94B5005C0162
:100B500084E00E94B5004C01BE01635F7F4FCE016F
:100B600001960E94700361E070E0892811F070E046
:100B700060E0CE0101960E94E6020E94C20261E09E
:100B800070E0AB2811F070E060E00E94E6020E9485
:100B9000C20261E070E0CD2811F070E060E00E94D8
:100BA000E6020E94C20261E070E0EF2811F070E0FE
:100BB00060E00E94E6020E948F01CE0101960E9431
:100BC000680361E082E00E94DE0061E083E00E9451
:100BD000DE0064E571E0CE0107960E94370387E0EE
:100BE0000E94B5007C0186E00E94B5006C0185E0A2
:100BF0000E94B5005C0184E00E94B5004C01BE017A
:100C0000695F7F4FCE0101960E94700361E070E042
:100C1000892811F070E060E0CE0101960E94E602A2
:100C20000E94C20261E070E0AB2811F070E060E069
:100C30000E94E6020E94C20261E070E0CD2811F03D
:100C400070E060E00E94E6020E94C20261E070E093
:100C5000EF2811F070E060E00E94E6020E948F0130
:100C6000CE0101960E9468030E943D014B015C0188
:100C700088EEC82E83E0D82EE12CF12C0E943D0195
:100C8000681979098A099B09683E734081059105B5
:100C9000A8F321E0C21AD108E108F10888EE880E15
:100CA00083E0981EA11CB11CC114D104E104F1041D
:100CB00029F7CE0107960E946803CE010D960E9487
:100CC0006803CE0143960E946803CE0149960E94B4
:100CD00068030115110509F47BCE0E94E501882304
:100CE00009F476CE0E94000073CEE1E7F1E01382B2
:100CF000128288EE93E0A0E0B0E084839583A6831F
:100D0000B7838AE091E09183808385EC90E09587BA
:100D1000848784EC90E09787868780EC90E0918BC5
:100D2000808B81EC90E0938B828B82EC90E0958BB2
:100D3000848B86EC90E0978B868B118E128E138EAF
:100D4000148E0895BB274A3031F4992322F4BDE272
:100D5000909581959F4F0C94AE06BB27FB015527BC
:100D6000AA27880F991FAA1FA41710F0A41B839508
:100D70005051B9F7A05DAA3308F0A95DA19300977F
:100D800079F7B111B1931192CB010C94C706DC0134
:100D9000FC01672F71917723E1F7329704C07C91B2
:100DA0006D9370836291AE17BF07C8F308952F92B9
:100DB0003F924F925F926F927F928F929F92AF92EB
:100DC000BF92CF92DF92EF92FF920F931F93CF9338
:100DD000DF93CDB7DEB7CA1BDB0B0FB6F894DEBFCF
:100DE0000FBECDBF09942A88398848885F846E84F5
:100DF0007D848C849B84AA84B984C884DF80EE803F
:100E0000FD800C811B81AA81B981CE0FD11D0FB647
:100E1000F894DEBF0FBECDBFED010895EE0FFF1FAA
:100E20000590F491E02D09940F931F93CF93DF93D6
:100E30008230910510F482E090E0E0911002F09190
:100E4000110230E020E0B0E0A0E0309799F42115E5
:100E5000310509F44AC0281B390B24303105D8F577
:100E60008A819B816115710589F1FB0193838283DE
:100E7000FE0111C040815181028113814817590739
:100E8000E0F04817590799F4109761F012960C9307
:100E9000129713961C933296CF01DF91CF911F9139
:100EA0000F9108950093100210931102F4CF2115B1
:100EB000310551F04217530738F0A901DB019A01BF
:100EC000BD01DF01F801C1CFEF01F9CF909311020D
:100ED00080931002CDCFFE01E20FF31F8193919317
:100EE0002250310939832883D7CF20910E023091C7
:100EF0000F02232B41F42091020130910301309322
:100F00000F0220930E022091000130910101211562
:100F1000310541F42DB73EB74091040150910501D0
:100F2000241B350BE0910E02F0910F02E217F3073C
:100F3000A0F42E1B3F0B2817390778F0AC014E5F49
:100F40005F4F2417350748F04E0F5F1F50930F0275
:100F500040930E02819391939FCFF0E0E0E09CCF0D
:100F6000CF93DF930097E9F0FC013297138212824E
:100F7000A0911002B0911102ED0130E020E0109735
:100F8000A1F420813181820F931F20910E023091B4
:100F90000F022817390709F061C0F0930F02E093A0
:100FA0000E02DF91CF910895EA01CE17DF07E8F531
:100FB0004A815B819E0141155105B1F7E901FB832F
:100FC000EA8349915991C40FD51FEC17FD0761F4CD
:100FD000808191810296840F951FE901998388830E
:100FE000828193819B838A83F0E0E0E012968D9169
:100FF0009C9113970097B9F52D913C911197CD01D4
:101000000296820F931F20910E0230910F02281733
:10101000390739F6309751F51092110210921002EB
:10102000B0930F02A0930E02BCCFD383C283408142
:101030005181840F951FC817D90761F44E5F5F4F28
:1010400088819981480F591F518340838A819B81F0
:10105000938382832115310509F0B0CFF0931102FB
:10106000E09310029ECFFD01DC01C0CF13821282FB
:10107000D7CFB0E0A0E0EFE3F8E00C94D9068C0104
:10108000009751F4CB010E9414078C01C801CDB721
:10109000DEB7E0E10C94F506FC01E60FF71F9C01BA
:1010A00022503109E217F30708F49DC0D901CD9110
:1010B000DC911197C617D70798F0C530D10530F3EA
:1010C000CE0104978617970708F3C61BD70B229704
:1010D000C193D1936D937C93CF010E94B007D6CF7B
:1010E0005B01AC1ABD0A4C018C0E9D1EA091100232
:1010F000B0911102512C412CF12CE12C109731F5BB
:1011000080910E0290910F028815990509F05CC03C
:101110004616570608F058C08091000190910101D1
:10112000009741F48DB79EB740910401509105019D
:10113000841B950BE817F90708F055C0F0930F02D0
:10114000E0930E02F90171836083A0CF8D919C9191
:10115000119712966C90129713967C901397A8157E
:10116000B90559F56C0142E0C40ED11CCA14DB0468
:1011700020F1AC014A195B09DA011296159780F04B
:101180006282738251834083D9016D937C93E11411
:10119000F10471F0D7011396FC93EE93129776CF7A
:1011A00022968C0F9D1FF90191838083F301EFCF6D
:1011B000F0931102E093100269CF4816590608F423
:1011C0002C017D01D3019ACFCB010E9414077C0131
:1011D000009749F0AE01B8010E94F608C8010E94CC
:1011E000B007870153CF10E000E050CFFB01DC01D6
:1011F00002C001900D9241505040D8F70895FB0174
:10120000DC0101900D920020E1F70895F894FFCFE2
:10121000000012028000000000001B026201A80111
:101220006802D901B701CB010D0A00436F64653A2A
:101230002030302C204F75747075743A2000436F45
:1012400064653A2030312C204F75747075743A20E3
:1012500000436F64653A2031302C204F75747075EF
:10126000743A2000436F64653A2031312C204F7569
:08127000747075743A2000004F
:107800000C94343C0C94513C0C94513C0C94513CE1
:107810000C94513C0C94513C0C94513C0C94513CB4
:107820000C94513C0C94513C0C94513C0C94513CA4
:107830000C94513C0C94513C0C94513C0C94513C94
:107840000C94513C0C94513C0C94513C0C94513C84
:107850000C94513C0C94513C0C94513C0C94513C74
:107860000C94513C0C94513C11241FBECFEFD8E036
:10787000DEBFCDBF11E0A0E0B1E0ECE9FFE702C060
:1078800005900D92A230B107D9F712E0A2E0B1E065
:1078900001C01D92AD30B107E1F70E942D3D0C945F
:1078A000CC3F0C94003C982F959595959595959582
:1078B000905D8F708A307CF0282F295A8091C0000B
:1078C00085FFFCCF9093C6008091C00085FFFCCF60
:1078D0002093C6000895282F205DF0CF982F809127
:1078E000C00085FFFCCF9093C6000895EF92FF92F1
:1078F0000F931F93EE24FF2487018091C00087FD22
:1079000017C00894E11CF11C011D111D81E4E8164B
:1079100082E4F8068FE0080780E0180770F3E09132
:107920000401F091050109958091C00087FFE9CF1E
:107930008091C6001F910F91FF90EF9008950E94D3
:10794000763C982F8091C00085FFFCCF9093C600B5
:1079500091362CF490330CF09053892F089597555D
:10796000892F08951F930E949F3C182F0E949F3CCF
:107970001295107F810F1F9108951F93182F882350
:1079800021F00E94763C1150E1F71F9108951F935A
:10799000182F0E94763C803249F0809103018F5F5E
:1079A000809303018530C1F01F9108958091C0003C
:1079B00085FFFCCF84E18093C6008091C00085FFE5
:1079C000FCCF1093C6008091C00085FFFCCF80E102
:1079D0008093C6001F910895E0910401F091050184
:1079E00009951F9108950E94763C803241F0809164
:1079F00003018F5F80930301853081F008958091AA
:107A0000C00085FFFCCF84E18093C6008091C00058
:107A100085FFFCCF80E18093C6000895E0910401CA
:107A2000F09105010995089540E951E08823A1F0FE
:107A30002D9A28EE33E0FA013197F1F721503040CA
:107A4000D1F72D9828EE33E0FA013197F1F7215064
:107A50003040D1F7815061F708953F924F925F9285
:107A60006F927F928F929F92AF92BF92CF92DF924E
:107A7000EF92FF920F931F93CF93DF93000080E16B
:107A80008093C4001092C50088E18093C10086E015
:107A90008093C2005098589A259A81E00E94143D24
:107AA00024E1F22E9EE1E92E85E9D82E0FE0C02ECA
:107AB00010E1B12EAA24A394B1E49B2EA6E58A2E50
:107AC000F2E57F2EE0E26E2E79E4572E63E5462E36
:107AD00050E5352E0E94763C8033B1F18133B9F107
:107AE000803409F46FC0813409F476C0823409F41B
:107AF00085C0853409F488C0803531F1823521F1A3
:107B0000813511F1853509F485C0863509F48DC0BC
:107B1000843609F496C0843709F403C1853709F423
:107B200072C1863709F466C0809103018F5F80932C
:107B30000301853079F6E0910401F0910501099582
:107B40000E94763C803351F60E94F33CC3CF0E94E2
:107B5000763C803249F78091C00085FFFCCFF092DF
:107B6000C6008091C00085FFFCCF9092C600809136
:107B7000C00085FFFCCF8092C6008091C00085FFC9
:107B8000FCCF7092C6008091C00085FFFCCF609250
:107B9000C6008091C00085FFFCCF5092C600809146
:107BA000C00085FFFCCF4092C6008091C00085FFD9
:107BB000FCCF3092C6008091C00085FFFCCFB09210
:107BC000C60088CF0E94763C863808F4BDCF0E945C
:107BD000763C0E94F33C7ECF0E94763C803809F4CC
:107BE0009CC0813809F40BC1823809F43CC1883942
:107BF00009F48FC080E00E94C73C6CCF84E10E94F2
:107C0000BD3C0E94F33C66CF85E00E94BD3C0E94D3
:107C1000F33C60CF0E94763C809306010E94763C44
:107C2000809307010E94F33C55CF0E94763C80333D
:107C300009F41DC183E00E94BD3C80E00E94C73C66
:107C400049CF0E94763C809309020E94763C809343
:107C5000080280910C028E7F80930C020E94763C79
:107C6000853409F415C18091080290910902892B8D
:107C700089F000E010E00E94763CF801E85FFE4FDA
:107C800080830F5F1F4F80910802909109020817AF
:107C9000190788F30E94763C803209F045CF809125
:107CA0000C0280FF01C16091060170910701660F0F
:107CB000771F7093070160930601A0910802B091AD
:107CC00009021097C9F0E8E0F1E09B01AD014E0F09
:107CD0005F1FF999FECF32BD21BD819180BDFA9A17
:107CE000F99A2F5F3F4FE417F50799F76A0F7B1F4B
:107CF00070930701609306018091C00085FFFCCF5F
:107D0000F092C6008091C00085FFFCCFB092C60003
:107D1000E1CE83E00E94C73CDDCE82E00E94C73CFA
:107D2000D9CE0E94763C809309020E94763C8093D3
:107D300008028091060190910701880F991F909386
:107D40000701809306010E94763C853409F4A6C0A1
:107D500080910C028E7F80930C020E94763C8032D0
:107D600009F0B8CE8091C00085FFFCCFF092C6002C
:107D7000609108027091090261157105B9F140E046
:107D800050E080910C02A82FA170B82FB27011C0E2
:107D9000BB2309F45CC0E0910601F0910701319624
:107DA000F0930701E09306014F5F5F4F46175707B7
:107DB000E8F4AA2369F3F999FECF209106013091E6
:107DC000070132BD21BDF89A90B58091C00085FFB2
:107DD000FCCF9093C6002F5F3F4F30930701209355
:107DE00006014F5F5F4F4617570718F38091C00099
:107DF00085FDE5CE8091C00085FFF8CFE0CE81E023
:107E00000E94C73C67CE0E94763C803209F08CCE3F
:107E10008091C00085FFFCCFF092C6008091C00029
:107E200085FFFCCFE092C6008091C00085FFFCCFAB
:107E3000D092C6008091C00085FFFCCFC092C600E2
:107E40008091C00085FFFCCFB092C60043CEE09188
:107E50000601F091070194918091C00085FFFCCF4D
:107E60009093C6009CCF80E10E94C73C33CE0E9415
:107E7000763C0E94763C182F0E94763C112309F430
:107E800083C0113009F484C08FE00E94C73C22CE29
:107E900080910C02816080930C02E5CE80910C02EF
:107EA000816080930C0259CF809107018823880F4D
:107EB000880B8A2180930B02809106019091070123
:107EC000880F991F90930701809306018091080203
:107ED00080FF09C080910802909109020196909359
:107EE000090280930802F894F999FECF1127E091D6
:107EF0000601F0910701C8E0D1E08091080290915D
:107F00000902103091F40091570001700130D9F34B
:107F100003E000935700E89500915700017001308D
:107F2000D9F301E100935700E89509901990009169
:107F3000570001700130D9F301E000935700E89534
:107F40001395103498F011270091570001700130FB
:107F5000D9F305E000935700E895009157000170B0
:107F60000130D9F301E100935700E895329602976A
:107F700009F0C7CF103011F00296E5CF112480919F
:107F8000C00085FFB9CEBCCE8EE10E94C73CA2CD19
:0E7F900085E90E94C73C9ECDF894FFCF80008B
:00000001FF
